:100000000088FF1F0103000091630000B56300003A
:10001000D9630000FD630000216400004564000016
:100020005D640000756400008D640000812A010099
:10003000812A0100A5640000812A0100B962000044
:10004000BD640000D5640000ED640000812A010059
:100050001D650000356500004D650000C9CA00003F
:1000600071CA000005CC0000B9CB0000812A010054
:1000700095650000AD65000011CD000069CD000060
:100080002DCE0000ED65000005660000812A01000C
:100090003566000099D0000041D00000812A01009F
:1000A000656600007D66000095660000812A0100FB
:1000B000A59B0000B59C0000B59D00008DFD0000D3
:1000C000DD660000F56600000D670000812A010072
:1000D0003D670000556700006D670000812A010040
:1000E0009D670000B5670000CD670000812A010010
:1000F000FD670000156800002D680000812A0100DE
:040100005D68000036
:100104000000000000000000000000001111117147
:1001140000000000010000000000000000000000DA
:1001240000000000000000000000000000000000CB
:100134000A00000000000000000000200080FF1FF3
:100144000080FF1F0088FF1F0088FF1F0090FF1F13
:100154008894FF1FA0D7FF1F00000060000000006C
:10016400000000000000000000000000000000008B
:1001740018C70100783E0020000000200088FF1FFF
:100184000090FF1F0090FF1F8894FF1FA0D7FF1F40
:1001940000000020000000600000000000000000DB
:1001A40000000000000000000000000056697461B7
:1001B400536D617274000000000000000000000034
:1001C400090000005265763A30312E30302E30303E
:1001D40035000000000000000D00000032372D3013
:1001E400312D3230323600000000000000000000E3
:1001F4000A00000030312E30302E30300000000074
:0C020400000000000000000009000000E5
:1002100000000000000000000000000000000000DE
:1002200000000000000000000000000000000000CE
:1002300000000000000000000000000000000000BE
:1002400000000000000000000000000000000000AE
:10025000000000000000000000000000000000009E
:10026000000000000000000000000000000000008E
:10027000000000000000000000000000000000007E
:10028000000000000000000000000000000000006E
:10029000000000000000000000000000000000005E
:1002A000000000000000000000000000000000004E
:1002B000000000000000000000000000000000003E
:1002C000000000000000000000000000000000002E
:1002D000000000000000000000000000000000001E
:1002E000000000000000000000000000000000000E
:1002F00000000000000000000000000000000000FE
:100300004EF60853CEF2000340F20002C0F20002A3
:100310001A6072B649F20004C1F6FF7484F30988CA
:100320004FF0020484F31488BFF36F8F05F0A4F933
:1003300048F20000C1F6FF7048F60001C1F6FF71F7
:100340004FF0553212F082FB48F60000C1F6FF7004
:1003500049F20001C1F6FF714FF0553212F076FB01
:1003600048F21845C0F2010549F20004C1F6FF74D5
:1003700005E02B68236004F1040405F1040549F24B
:100380008843C1F6FF739C42F3D349F28840C1F61B
:10039000FF704DF2A071C1F6FF714FF0000212F034
:1003A00055FB48F6A005C0F2010540F20004C2F278
:1003B000000405E02B68236004F1040405F1040542
:1003C00043F67863C2F200039C42F3D305F002FACD
:1003D00040F21444C0F2000403E02368984704F19B
:1003E000040440F22443C0F200039C42F5D311F010
:1003F000BBFF40F22444C0F2000403E023689847A6
:1004000004F1040440F22843C0F200039C42F5D3F7
:0404100012F01AFBD1
:100414003104000075040000D554000009D5000023
:04042400510400007F
:10043000024B13B1024817F0D3BD70470000000013
:10044000B179010000000000000000000000000081
:1004500010B5054C237833B9044810B10448AFF304
:1004600000800121217010BD8894FF1F0000000052
:100470001884010008B5064B1BB106480649AFF3C6
:1004800000800648016811B1054A02B1904708BDD5
:1004900000000000188401008C94FF1F8894FF1F47
:1004A000000000000000000000000000000000004C
:1004B00080B483B000AF78604FF00003184607F1B6
:1004C0000C07BD4680BC704790B583B000AF4FF0BD
:1004D0000003FB714FF00003BB714FF00003FB7092
:1004E0004FF000037B714FF000033B7107F10303F2
:1004F00049F2A440C1F6FF704FF010014FF4807232
:1005000014F05EFD0346BB71BB7983F00103DBB2DF
:10051000002B3BD04FF041004FF0010102F080F87A
:1005200049F2B853C1F6FF734FF07D02A3F83622AB
:1005300049F2A442C1F6FF7248F23003C0F201034F
:1005400014460FCB84E80F0007F1030349F2A440DF
:10055000C1F6FF704FF010014FF4807214F068FE86
:1005600003467B717B7983F00103DBB2002B0DD056
:100570004FF041004FF0010102F052F849F2B85338
:10058000C1F6FF734FF07E02A3F8362207F1030392
:1005900049F2B440C1F6FF704FF010014FF4A07261
:1005A00014F00EFD0346BB71BB7983F00103DBB28F
:1005B000002B3BD04FF041004FF0010102F030F82A
:1005C00049F2B853C1F6FF734FF07F02A3F8362209
:1005D00049F2B442C1F6FF7248F24003C0F201038F
:1005E00014460FCB84E80F0007F1030349F2B4402F
:1005F000C1F6FF704FF010014FF4A07214F018FE16
:1006000003467B717B7983F00103DBB2002B0DD0B5
:100610004FF041004FF0010102F002F849F2B853E7
:10062000C1F6FF734FF08002A3F8362207F10303EF
:1006300049F2C440C1F6FF704FF010014FF4C07290
:1006400014F0BEFC0346BB71BB7983F00103DBB23F
:10065000002B3BD04FF041004FF0010101F0E0FFD3
:1006600049F2B853C1F6FF734FF08102A3F8362266
:1006700049F2C442C1F6FF7248F25003C0F20103CE
:1006800014460FCB84E80F0007F1030349F2C4407E
:10069000C1F6FF704FF010014FF4C07214F0C8FDA6
:1006A00003467B717B7983F00103DBB2002B0DD015
:1006B0004FF041004FF0010101F0B2FF49F2B85391
:1006C000C1F6FF734FF08202A3F8362207F103034D
:1006D00049F2D440C1F6FF704FF010014FF4E072C0
:1006E00014F06EFC0346BB71BB7983F00103DBB2EF
:1006F000002B3BD04FF041004FF0010101F090FF83
:1007000049F2B853C1F6FF734FF08302A3F83622C3
:1007100049F2D442C1F6FF7248F26003C0F201030D
:1007200014460FCB84E80F0007F1030349F2D440CD
:10073000C1F6FF704FF010014FF4E07214F078FD35
:1007400003467B717B7983F00103DBB2002B0DD074
:100750004FF041004FF0010101F062FF49F2B85340
:10076000C1F6FF734FF08402A3F8362207F10303AA
:1007700049F2E440C1F6FF704FF010014FF40072EF
:1007800014F01EFC0346BB71BB7983F00103DBB29E
:10079000002B3BD04FF041004FF0010101F040FF32
:1007A00049F2B853C1F6FF734FF08502A3F8362221
:1007B00049F2E442C1F6FF7248F27003C0F201034D
:1007C00014460FCB84E80F0007F1030349F2E4401D
:1007D000C1F6FF704FF010014FF4007214F028FDC5
:1007E00003467B717B7983F00103DBB2002B0DD0D4
:1007F0004FF041004FF0010101F012FF49F2B853F0
:10080000C1F6FF734FF08602A3F8362207F1030307
:1008100049F2F440C1F6FF704FF010014FF410722E
:1008200014F0CEFB0346BB71BB7983F00103DBB24E
:10083000002B3BD04FF041004FF0010101F0F0FEE2
:1008400049F2B853C1F6FF734FF08702A3F836227E
:1008500049F2F442C1F6FF7248F28003C0F201038C
:1008600014460FCB84E80F0007F1030349F2F4406C
:10087000C1F6FF704FF010014FF4107214F0D8FC65
:1008800003467B717B7983F00103DBB2002B0DD033
:100890004FF041004FF0010101F0C2FE49F2B853A0
:1008A000C1F6FF734FF08802A3F8362207F1030365
:1008B00049F20450C1F6FF704FF010014FF420725E
:1008C00014F07EFB0346BB71BB7983F00103DBB2FE
:1008D000002B3BD04FF041004FF0010101F0A0FE92
:1008E00049F2B853C1F6FF734FF08902A3F83622DC
:1008F00049F20452C1F6FF7248F29003C0F20103BC
:1009000014460FCB84E80F0007F1030349F20450AB
:10091000C1F6FF704FF010014FF4207214F088FC04
:1009200003467B717B7983F00103DBB2002B0DD092
:100930004FF041004FF0010101F072FE49F2B8534F
:10094000C1F6FF734FF08A02A3F8362207F10303C2
:1009500049F21450C1F6FF704FF010014FF430729D
:1009600014F02EFB0346BB7149F21450C1F6FF7020
:1009700048F2A001C0F201014FF0100217F040F858
:100980000346002B0CBF002301233B71BB7983F08E
:100990000103DBB2002B02D13B79002B4AD04FF090
:1009A00041004FF0010101F03BFE3B7983F0010370
:1009B000DBB2002B08D049F2B853C1F6FF734FF0F9
:1009C0008B02A3F8362207E049F2B853C1F6FF7351
:1009D0004FF09B02A3F8362249F21452C1F6FF727F
:1009E00048F2A003C0F2010314460FCB84E80F00C5
:1009F00007F1030349F21450C1F6FF704FF01001E4
:100A00004FF4307214F014FC03467B717B7983F051
:100A10000103DBB2002B0DD04FF041004FF001017C
:100A200001F0FEFD49F2B853C1F6FF734FF08C029E
:100A3000A3F8362207F1030349F22450C1F6FF70F0
:100A40004FF010014FF4407214F0BAFA0346BB7134
:100A500049F22450C1F6FF7048F2B001C0F2010122
:100A60004FF0100216F0CCFF0346002B0CBF002302
:100A700001233B71BB7983F00103DBB2002B02D170
:100A80003B79002B4AD04FF041004FF0010101F0BB
:100A9000C7FD3B7983F00103DBB2002B08D049F29C
:100AA000B853C1F6FF734FF08D02A3F8362207E06A
:100AB00049F2B853C1F6FF734FF09C02A3F83622F7
:100AC00049F22452C1F6FF7248F2B003C0F20103AA
:100AD00014460FCB84E80F0007F1030349F22450BA
:100AE000C1F6FF704FF010014FF4407214F0A0FBFC
:100AF00003467B717B7983F00103DBB2002B0DD0C1
:100B00004FF041004FF0010101F08AFD49F2B85366
:100B1000C1F6FF734FF08E02A3F8362207F10303EC
:100B200049F23450C1F6FF704FF010014FF450728B
:100B300014F046FA0346BB7149F23450C1F6FF7017
:100B400048F2C001C0F201014FF0100216F058FF48
:100B50000346002B0CBF002301233B71BB7983F0BC
:100B60000103DBB2002B02D13B79002B4AD04FF0BE
:100B700041004FF0010101F053FD3B7983F0010387
:100B8000DBB2002B08D049F2B853C1F6FF734FF027
:100B90008F02A3F8362207E049F2B853C1F6FF737B
:100BA0004FF09D02A3F8362249F23452C1F6FF728B
:100BB00048F2C003C0F2010314460FCB84E80F00D3
:100BC00007F1030349F23450C1F6FF704FF01001F2
:100BD0004FF4507214F02CFB03467B717B7983F049
:100BE0000103DBB2002B0DD04FF041004FF00101AB
:100BF00001F016FD49F2B853C1F6FF734FF09002B1
:100C0000A3F8362207F1030349F24450C1F6FF70FE
:100C10004FF010014FF4607214F0D2F90346BB712B
:100C200049F24450C1F6FF7048F2D001C0F2010110
:100C30004FF0100216F0E4FE0346002B0CBF002319
:100C400001233B71BB7983F00103DBB2002B02D19E
:100C50003B79002B4AD04FF041004FF0010101F0E9
:100C6000DFFC3B7983F00103DBB2002B08D049F2B3
:100C7000B853C1F6FF734FF09102A3F8362207E094
:100C800049F2B853C1F6FF734FF09E02A3F8362223
:100C900049F24452C1F6FF7248F2D003C0F2010398
:100CA00014460FCB84E80F0007F1030349F24450C8
:100CB000C1F6FF704FF010014FF4607214F0B8FAF3
:100CC00003467B717B7983F00103DBB2002B0DD0EF
:100CD0004FF041004FF0010101F0A2FC49F2B8537E
:100CE000C1F6FF734FF09202A3F8362207F1030317
:100CF00049F25450C1F6FF704FF010014FF470727A
:100D000014F05EF90346BB7149F25450C1F6FF700E
:100D100048F2E001C0F201014FF0100216F070FE3F
:100D20000346002B0CBF002301233B71BB7983F0EA
:100D30000103DBB2002B02D13B79002B4AD04FF0EC
:100D400041004FF0010101F06BFC3B7983F001039E
:100D5000DBB2002B08D049F2B853C1F6FF734FF055
:100D60009302A3F8362207E049F2B853C1F6FF73A5
:100D70004FF09F02A3F8362249F25452C1F6FF7297
:100D800048F2E003C0F2010314460FCB84E80F00E1
:100D900007F1030349F25450C1F6FF704FF0100100
:100DA0004FF4707214F044FA03467B717B7983F040
:100DB0000103DBB2002B0DD04FF041004FF00101D9
:100DC00001F02EFC49F2B853C1F6FF734FF09402C4
:100DD000A3F8362207F1030349F26450C1F6FF700D
:100DE0004FF010014FF4806214F0EAF80346BB7133
:100DF00049F26450C1F6FF7048F2F001C0F20101FF
:100E00004FF0100216F0FCFD0346002B0CBF002330
:100E100001233B71BB7983F00103DBB2002B02D1CC
:100E20003B79002B4AD04FF041004FF0010101F017
:100E3000F7FB3B7983F00103DBB2002B08D049F2CA
:100E4000B853C1F6FF734FF09502A3F8362207E0BE
:100E500049F2B853C1F6FF734FF0A002A3F836224F
:100E600049F26452C1F6FF7248F2F003C0F2010386
:100E700014460FCB84E80F0007F1030349F26450D6
:100E8000C1F6FF704FF010014FF4806214F0D0F9FA
:100E900003467B717B7983F00103DBB2002B0DD01D
:100EA0004FF041004FF0010101F0BAFB49F2B85395
:100EB000C1F6FF734FF09602A3F8362207F1030341
:100EC00049F27450C1F6FF704FF010014FF4886280
:100ED00014F076F80346BB7149F27450C1F6FF7006
:100EE00048F20011C0F201014FF0100216F088FD27
:100EF0000346002B0CBF002301233B71BB7983F019
:100F00000103DBB2002B02D13B79002B4AD04FF01A
:100F100041004FF0010101F083FB3B7983F00103B5
:100F2000DBB2002B08D049F2B853C1F6FF734FF083
:100F30009702A3F8362207E049F2B853C1F6FF73CF
:100F40004FF0A102A3F8362249F27452C1F6FF72A3
:100F500048F20013C0F2010314460FCB84E80F00DF
:100F600007F1030349F27450C1F6FF704FF010010E
:100F70004FF4886214F05CF903467B717B7983F04F
:100F80000103DBB2002B0DD04FF041004FF0010107
:100F900001F046FB49F2B853C1F6FF734FF09802D7
:100FA000A3F83622FB79184607F10C07BD4690BD21
:100FB00080B586B004AF4FF00003FB714FF00E0018
:100FC00011F066FD0346FB71FB79002B02D04FF058
:100FD0006503D0E14FF01903009349F2A443C1F631
:100FE000FF7301934FF0020302934FF0000303934A
:100FF0004AF6B400C1F6FF704FF000014FF019023D
:101000004FF0020311F068FE0346FB71FB79002BE1
:1010100002D04FF06603AEE14FF01903009349F29E
:10102000B443C1F6FF7301934FF0020302934FF0F4
:1010300000030393C2484FF001014FF019024FF033
:10104000020311F049FE0346FB71FB79002B02D02D
:101050004FF067038FE14FF01903009349F2C44347
:10106000C1F6FF7301934FF0020302934FF00003A8
:101070000393B4484FF002014FF019024FF00203FE
:1010800011F02AFE0346FB71FB79002B02D04FF0D2
:10109000680370E14FF01903009349F2D443C1F69D
:1010A000FF7301934FF0020302934FF00003039389
:1010B000A5484FF003014FF019024FF0020311F061
:1010C0000BFE0346FB71FB79002B02D04FF0690346
:1010D00051E14FF01903009349F2E443C1F6FF7365
:1010E00001934FF0020302934FF0000303939748DC
:1010F0004FF004014FF019024FF0020311F0ECFD24
:101100000346FB71FB79002B02D04FF06A0332E1FA
:101110004FF01903009349F2F443C1F6FF730193B2
:101120004FF0020302934FF00003039388484FF0FF
:1011300005014FF019024FF0020311F0CDFD0346F7
:10114000FB71FB79002B02D04FF06B0313E14FF0E2
:101150000103009349F20453C1F6FF7301934FF06A
:10116000020302934FF0000303937A484FF0060105
:101170004FF001024FF0020311F0AEFD0346FB7188
:10118000FB79002B02D04FF06C03F4E04FF0080322
:10119000009349F21453C1F6FF7301934FF0020319
:1011A00002934FF0000303936B484FF007014FF099
:1011B00008024FF0020311F08FFD0346FB71FB792B
:1011C000002B02D04FF06D03D5E04FF008030093E1
:1011D00049F22453C1F6FF7301934FF002030293C7
:1011E0004FF0000303935D484FF008014FF00802F1
:1011F0004FF0020311F070FD0346FB71FB79002BE9
:1012000002D04FF06E03B6E04FF00803009349F2AE
:101210003453C1F6FF7301934FF0020302934FF072
:10122000000303934E484FF009014FF008024FF0BE
:10123000020311F051FD0346FB71FB79002B02D034
:101240004FF06F0397E04FF00803009349F24453C7
:10125000C1F6FF7301934FF0020302934FF00003B6
:10126000039340484FF00A014FF008024FF0020389
:1012700011F032FD0346FB71FB79002B02D04FF0D9
:10128000700378E04FF00803009349F25453C1F61D
:10129000FF7301934FF0020302934FF00003039397
:1012A00031484FF00B014FF008024FF0020311F0EC
:1012B00013FD0346FB71FB79002B02D04FF0710345
:1012C00059E04FF00803009349F26453C1F6FF73ED
:1012D00001934FF0020302934FF00003039323485E
:1012E0004FF00C014FF008024FF0020311F0F4FC34
:1012F0000346FB71FB79002B02D04FF072033AE0FA
:101300004FF00803009349F27453C1F6FF73019341
:101310004FF0020302934FF00003039314484FF081
:101320000D014FF008024FF0020311F0D5FC034607
:10133000FB71FB79002B1DD04FF073031BE000BF46
:10134000B4A9FF1FB4AAFF1FB4ABFF1FB4ACFF1FAB
:10135000B4ADFF1FB4AEFF1FB4AFFF1FB4B0FF1F8B
:10136000B4B1FF1FB4B2FF1FB4B3FF1FB4B4FF1F6B
:10137000B4B5FF1FFB79184607F10807BD4680BDCD
:1013800080B483B000AF78604FF00003184607F1D7
:101390000C07BD4680BC704790B58FB006AF4FF0CC
:1013A0000003FB774FF00003BB614FF00103FB82AA
:1013B0004EF2C013C4F6E4333B614FF00003FB81EF
:1013C0004FF00003BB604FF000037B604FF0000361
:1013D0003B604FF4B67011F0CBFA044620464FF054
:1013E000010105F051FD49F28453C1F6FF731C6001
:1013F00049F28453C1F6FF731B6893F86B31002BDD
:1014000000F0988149F28453C1F6FF731B684FF0D6
:10141000000200924FF0010201924FF0000202928E
:101420004FF0010203924FF0000204924FF00002CD
:10143000059218464FF001014FF008024FF00003EB
:1014400006F0D8F849F28453C1F6FF731B681846BA
:101450004FF001014FF6F07207F058F849F284534B
:10146000C1F6FF731B684FF00102009218464FF05F
:1014700000014FF001024FF0020308F0DBF849F2DF
:101480008453C1F6FF731B6818464FF001014FF0FB
:1014900000024FF0010308F0EFF949F28453C1F65E
:1014A000FF731B68184641F2F171C0F200014FF062
:1014B00000024FF0010308F047FB49F28453C1F6E4
:1014C000FF731B68184641F66921C0F200014FF016
:1014D000010208F0F1FA4FF48073FB824FF07E5066
:1014E000396916F031F803461A4649F29053C1F6AD
:1014F000FF731A60FB8A184615F01CFF024649F27A
:101500009053C1F6FF731B681046194615F068FF2B
:1015100003461A4649F29053C1F6FF731A60FB8ADC
:10152000184615F007FF03463869194616F00CF8FF
:1015300003463B60386815F0B7FA02460B46104682
:10154000194685A3D3E9002315F002FB02460B469A
:101550001046194615F0E4FD0346BB60B8684FF02D
:101560007E5115F031FE0346184616F029F9034660
:10157000FB8149F28453C1F6FF731A68FB89104658
:101580004FF001011A4606F0C1FF49F28453C1F63B
:10159000FF731B6818464FF0010106F005FE4FF07F
:1015A0000103FB824FF00003BB604FF00003FB819F
:1015B00049F28453C1F6FF731B684FF0000200929A
:1015C0004FF0010201924FF0000202924FF001022F
:1015D00003924FF0000204924FF000020592184669
:1015E0004FF000014FF008024FF0010306F002F83F
:1015F00049F28453C1F6FF731B684FF00102009259
:1016000018464FF001014FF000024FF0020308F0BE
:1016100011F849F28453C1F6FF731B6818464FF066
:1016200000014FF001024FF0000308F025F949F2E4
:101630008453C1F6FF731B68184641F69501C0F24A
:1016400000014FF001024FF0000308F07DFA49F26B
:101650008453C1F6FF731B68184641F63911C0F276
:1016600000014FF0000208F027FA4FF48073FB826C
:101670004FF07E50396915F067FF03461A4649F26C
:101680008853C1F6FF731A60FB8A184615F052FEA4
:10169000024649F28853C1F6FF731B68104619468B
:1016A00015F09EFE03461A4649F28853C1F6FF73B1
:1016B0001A60FB8A184615F03DFE03463869194644
:1016C00015F042FF03467B60786815F0EDF902469D
:1016D0000B461046194620A3D3E9002315F038FA2B
:1016E00002460B461046194615F01AFD0346BB602C
:1016F000B8684FF07E5115F067FD0346184616F0A6
:101700005FF80346FB8149F28453C1F6FF731A6800
:10171000FB8910464FF000011A4606F0F7FE49F229
:101720008453C1F6FF731B6818464FF0000106F0A2
:101730003BFD0AE04FF00103FB7749F28453C1F609
:10174000FF731B68184608F03BFBFB7F184607F148
:101750002407BD4690BD00BF9A9999999999A93FD0
:1017600080B582B000AF4FF00003FB8049F2845394
:10177000C1F6FF731B6893F86B31002B0DD049F253
:101780008453C1F6FF731B6818464FF000014FF0F9
:10179000010208F039F90346FB80FB88184607F17F
:1017A0000807BD4680BD00BF80B582B000AF4FF0D6
:1017B0000003FB8049F28453C1F6FF731B6893F862
:1017C0006B31002B0DD049F28453C1F6FF731B68B7
:1017D00018464FF001014FF0000208F015F90346DA
:1017E000FB80FB88184607F10807BD4680BD00BF97
:1017F00080B584B000AF4FF00103BB604FF0000331
:101800007B604FF000033B604FF00003FB73FFF77A
:10181000A7FF03467B607A684FF6FF739A4202D0B7
:101820004FF00103FB7349F28453C1F6FF731B6849
:1018300018464FF000014FF0010207F02BFF03465E
:10184000BB60BB68FF2B02D10CF090F9FEE7BB68D0
:10185000002B16D1FB7B002B16D049F29453C1F616
:10186000FF734FF000021A6049F60C23C1F6FF73B4
:101870001B6803F1010249F60C23C1F6FF731A60DD
:1018800002E04FF01403BB6000BF07F11007BD4634
:1018900080BD00BF80B584B000AF4FF00103BB60D6
:1018A0004FF000037B604FF000033B604FF00003FC
:1018B000FB73FFF779FF03467B607A684FF6FF738F
:1018C0009A4202D04FF00103FB7349F28453C1F6F0
:1018D000FF731B6818464FF001014FF0000207F03C
:1018E000D9FE0346BB60BB68FF2B02D10CF03EF96A
:1018F000FEE7BB68002B16D1FB7B002B16D049F20C
:101900008C53C1F6FF734FF000021A6049F61023A2
:10191000C1F6FF731B6803F1010249F61023C1F6FB
:10192000FF731A6002E04FF01403BB6000BF07F1C1
:101930001007BD4680BD00BF80B584B000AF034630
:10194000FB714FF00003FB734FF00003BB7349F2D0
:101950008453C1F6FF731B6818464FF0000105F071
:101960006DFD0346012B14BF00230123DBB2002BC6
:101970006BD049F28453C1F6FF731B6818464FF0D1
:10198000000105F0F1FC0346BB73BB7BFF2B5CD071
:10199000BB7B012B59D14FF00103FB7349F28C53F0
:1019A000C1F6FF731B6803F1010249F28C53C1F6C3
:1019B000FF731A6049F61023C1F6FF731B68002BF2
:1019C0001DD049F61023C1F6FF731B684FEA43028E
:1019D00049F61023C1F6FF731A6049F61023C1F6C9
:1019E000FF731A6849F61423C1F6FF731A6049F6AB
:1019F0001023C1F6FF734FF000021A6006E049F6AB
:101A00001423C1F6FF734FF000021A6049F28C53A1
:101A1000C1F6FF731B68042B0DD949F28C53C1F634
:101A2000FF734FF000021A6049F61023C1F6FF73EE
:101A30004FF000021A6049F28453C1F6FF731B682D
:101A400018464FF0000105F051FCFB7B83F00103C9
:101A5000DBB2002B02D04FF0FF03BB7300BF07F1D6
:101A60001007BD4680BD00BF80B584B000AF0346FF
:101A7000FB714FF00003FB734FF00003BB734FF09B
:101A800000037B734FF000033B7349F28453C1F6AC
:101A9000FF731B6818464FF0010105F0CFFC0346A9
:101AA000012B14BF00230123DBB2002B6ED04FF0BB
:101AB00001037B7349F28453C1F6FF731B68184618
:101AC0004FF0010105F050FC0346BB73BB7BFF2BBD
:101AD0005CD0BB7B012B59D14FF00103FB7349F262
:101AE0009453C1F6FF731B6803F1010249F294534A
:101AF000C1F6FF731A6049F60C23C1F6FF731B6829
:101B0000002B1DD049F60C23C1F6FF731B684FEA6A
:101B1000430249F60C23C1F6FF731A6049F60C2301
:101B2000C1F6FF731A6849F61823C1F6FF731A60ED
:101B300049F60C23C1F6FF734FF000021A6006E06D
:101B400049F61823C1F6FF734FF000021A6049F2FC
:101B50009453C1F6FF731B68042B0DD949F29453BB
:101B6000C1F6FF734FF000021A6049F60C23C1F66C
:101B7000FF734FF000021A6049F28453C1F6FF73FD
:101B80001B6818464FF0010105F0B0FBFB7B83F0AA
:101B90000103DBB2002B02D04FF0FF03BB7300BF89
:101BA00007F11007BD4680BD0000000000000000E6
:101BB00080B483B000AF78604FF00003184607F19F
:101BC0000C07BD4680BC704780B400AF49F2985303
:101BD000C1F6FF734FF000029A7049F29853C1F6B4
:101BE000FF734FF000025A7049F29853C1F6FF7329
:101BF0004FF00002DA7049F2B853C1F6FF734FF0AC
:101C0000000283F8392249F2B853C1F6FF734FF04E
:101C1000000283F8382249F2A453C1F6FF734FF053
:101C200000021A6049F2A853C1F6FF734FF0000298
:101C30001A6049F2A053C1F6FF734FF000021A6018
:101C400049F2AC53C1F6FF734FF000021A60BD4673
:101C500080BC704780B500AF4FF4C743C4F2662321
:101C60001B68002B14BF00230123DBB2002B28D0FC
:101C700049F2A453C1F6FF734FF000021A6049F213
:101C8000A853C1F6FF731B6803F1010249F2A85380
:101C9000C1F6FF731A6049F2A853C1F6FF731B68BF
:101CA000012B36DD49F2A853C1F6FF734FF0020253
:101CB0001A6049F2A053C1F6FF734FF000021A6098
:101CC00027E049F2A853C1F6FF734FF000021A60F3
:101CD00049F2A453C1F6FF731B6803F1010249F2F4
:101CE000A453C1F6FF731A6049F2A453C1F6FF73FF
:101CF0001B68012B0DDD49F2A453C1F6FF734FF0B1
:101D000002021A6049F2A053C1F6FF734FF00102BC
:101D10001A6046F28433C4F266231B68002B14BF9A
:101D200000230123DBB2002B28D049F2B053C1F6C7
:101D3000FF734FF000021A6049F2B453C1F6FF730B
:101D40001B6803F1010249F2B453C1F6FF731A6034
:101D500049F2B453C1F6FF731B68012B36DD49F21B
:101D6000B453C1F6FF734FF002021A6049F2AC534C
:101D7000C1F6FF734FF000021A6027E049F2B45336
:101D8000C1F6FF734FF000021A6049F2B053C1F67A
:101D9000FF731B6803F1010249F2B053C1F6FF73F0
:101DA0001A6049F2B053C1F6FF731B68012B0DDDB9
:101DB00049F2B053C1F6FF734FF002021A6049F2C4
:101DC000AC53C1F6FF734FF001021A6049F2985309
:101DD000C1F6FF739B78002B11D149F29853C1F6DD
:101DE000FF734FF001029A7049F60473C1F6FF7356
:101DF0001A6849F29853C1F6FF735A60D6E049F267
:101E00009853C1F6FF735B78042B00F2C68001A2E1
:101E100052F823F0291E0000C51E00006B1F0000B1
:101E20007B1F00008B1F000049F2AC53C1F6FF730B
:101E30001B68002B18D149F29853C1F6FF734FF07D
:101E40000002DA7049F29853C1F6FF734FF00102B5
:101E50005A7049F60473C1F6FF731A6849F2985331
:101E6000C1F6FF735A60A1E049F2A053C1F6FF73B7
:101E70001B68002B07D149F2B853C1F6FF734FF02E
:101E8000010283F8382249F60473C1F6FF731A6819
:101E900049F29853C1F6FF735B68D31AB3F5FA6F32
:101EA00040F2818049F2B853C1F6FF734FF001024E
:101EB00083F8392249F29853C1F6FF734FF00002BC
:101EC0009A7070E049F2A053C1F6FF731B68002BB3
:101ED00006D149F29853C1F6FF734FF00102DA7050
:101EE00049F2AC53C1F6FF731B68012B1FD149F2B5
:101EF0009853C1F6FF73DB78002B07D149F2B85332
:101F0000C1F6FF734FF0010283F8392249F298536A
:101F1000C1F6FF734FF002025A7049F60473C1F61E
:101F2000FF731A6849F29853C1F6FF735A6049F675
:101F30000473C1F6FF731A6849F29853C1F6FF7330
:101F40005B68D31AB3F5FA7F2FD949F2B853C1F6BB
:101F5000FF734FF0010283F8392249F29853C1F61A
:101F6000FF734FF000029A701FE049F29853C1F6D8
:101F7000FF734FF003025A7018E049F29853C1F60C
:101F8000FF734FF004025A7010E049F29853C1F603
:101F9000FF734FF000025A7008E04FF00A0000F0A3
:101FA0009FFE00BF02E000BF00E000BF80BD00BF99
:101FB00080B483B000AF78604FF00003184607F19B
:101FC0000C07BD4680BC704780B582B000AF49F2B7
:101FD000B853C1F6FF734FF000021A7049F2B853BC
:101FE000C1F6FF734FF000021A7249F2B853C1F6FE
:101FF000FF734FF000025A7249F2B853C1F6FF73F3
:102000004FF00002DA7249F2B853C1F6FF73DA7A80
:1020100049F2B853C1F6FF739A724FF00003FB7197
:102020000CE0FA7949F2B853C1F6FF739B184FF0F0
:1020300001021A73FB7903F10103FB71FB795B2B3E
:102040008CBF00230123DBB2002BEAD149F2B85345
:10205000C1F6FF734FF0000283F8392049F2B853FC
:10206000C1F6FF734FF0000283F83D2049F2B853E8
:10207000C1F6FF734FF0000283F85C2049F2B853B9
:10208000C1F6FF734FF0000283F85D2049F2B853A8
:10209000C1F6FF734FF0000283F82A2049F2B853CB
:1020A000C1F6FF734FF0000283F84A2049F2B8539B
:1020B000C1F6FF734FF0000283F82B2049F2B853AA
:1020C000C1F6FF734FF0000283F8302049F2B85395
:1020D000C1F6FF734FF0000283F8432049F2B85372
:1020E000C1F6FF734FF0000283F8652049F2B85340
:1020F000C1F6FF734FF0000283F8252049F2B85370
:10210000C1F6FF734FF0000283F8262049F2B8535E
:10211000C1F6FF734FF0000283F82D2049F2B85347
:10212000C1F6FF734FF0000283F82F2049F2B85335
:10213000C1F6FF734FF0000283F8452049F2B8530F
:10214000C1F6FF734FF0000283F8442049F2B85300
:10215000C1F6FF734FF0000283F8462049F2B853EE
:10216000C1F6FF734FF0000283F847204FF00003E1
:10217000FB710DE0FA7949F2B853C1F6FF739B1871
:102180004FF0030283F86820FB7903F10103FB7130
:10219000FB795B2B8CBF00230123DBB2002BE9D141
:1021A00049F2B853C1F6FF734FF0020283F8992049
:1021B00049F2B853C1F6FF734FF0020283F86B2067
:1021C00049F2B853C1F6FF734FF0020283F86C2056
:1021D00049F2B853C1F6FF734FF0020283F86D2045
:1021E00049F2B853C1F6FF734FF0020283F87D2025
:1021F00049F2B853C1F6FF734FF0020283F8922000
:1022000049F2B853C1F6FF734FF0000283F89D20E6
:1022100049F2B853C1F6FF734FF0000283F8A120D2
:1022200049F2B853C1F6FF734FF0000283F8A020C3
:1022300049F2B853C1F6FF734FF0020283F8A220AF
:1022400049F2B853C1F6FF734FF0000283F89E20A5
:1022500049F2B853C1F6FF734FF0000283F89D2096
:1022600049F2B853C1F6FF734FF0000283F8B8206B
:1022700049F2B853C1F6FF734FF0000283F8B9205A
:1022800049F2B853C1F6FF734FF0000283F8BA2049
:1022900049F2B853C1F6FF734FF0020283F885206C
:1022A00049F2B853C1F6FF734FF0000283F886205D
:1022B00049F2B853C1F6FF734FF0000283F8A6202D
:1022C0004FF00003FB7113E0F979FA7949F2B85342
:1022D000C1F6FF739B1893F8682049F2B853C1F612
:1022E000FF735B1883F8C420FB7903F10103FB71D2
:1022F000FB795B2B8CBF00230123DBB2002BE3D1E6
:1023000049F2B853C1F6FF734FF0000283F8DB20A7
:1023100049F2B853C1F6FF734FF0000283F8E6208C
:102320004FF00003FB710DE0FA7949F2B853C1F6A2
:10233000FF739B184FF0000283F82021FB7903F113
:102340000103FB71FB795B2B8CBF00230123DBB204
:10235000002BE9D14FF00003FB710DE0FA7949F24F
:10236000B853C1F6FF739B184FF0010283F8D821D0
:10237000FB7903F10103FB71FB795B2B8CBF00231D
:102380000123DBB2002BE9D14FF40243C4F26623F0
:102390004FF001021A6049F66010C1F6FF704FF469
:1023A0007A6115F03DFA07F10807BD4680BD00BF10
:1023B00080B582B000AF49F2B853C1F6FF734FF059
:1023C00000021A7249F2B853C1F6FF7393F86231F2
:1023D000002B07D049F2B853C1F6FF734FF0420209
:1023E0001A7220E04FF00003FB7114E0FA7949F211
:1023F000B853C1F6FF739B1893F82031002B06D019
:1024000049F2B853C1F6FF73FA791A720BE0FB79FF
:1024100003F10103FB71FB795B2B8CBF00230123CC
:10242000DBB2002BE2D149F2B853C1F6FF731B783F
:10243000012B14D0022B6DD0002B40F0E28049F22A
:10244000B853C1F6FF731B7A002B00F0E08049F20D
:10245000B853C1F6FF734FF001021A70D7E049F28A
:10246000B853C1F6FF731B7A002B07D149F2B8535A
:10247000C1F6FF734FF000021A70CDE04FF0000379
:10248000BB714FF00003FB7126E0FA7949F2B853B3
:10249000C1F6FF739B1893F82031002B0AD1FA790B
:1024A00049F2B853C1F6FF739B184FF0000283F84E
:1024B0007C210DE0FA7949F2B853C1F6FF739B18FD
:1024C00093F87C31002B03D1BB7903F10103BB717D
:1024D000FB7903F10103FB71FB795B2B8CBF0023BC
:1024E0000123DBB2002BD0D1BB79002B40F09180CF
:1024F00049F2B853C1F6FF734FF002021A7049F661
:102500000473C1F6FF731A6849F2B853C1F6FF733A
:102510005A607EE049F2B853C1F6FF731B7A002B74
:1025200007D149F2B853C1F6FF734FF000021A7099
:1025300072E04FF00003BB7149F60473C1F6FF73FC
:102540001A6849F2B853C1F6FF735B68D21A4EF6A7
:1025500060239A4294BF00230123DBB2002B03D0F7
:10256000BB7903F10103BB714FF00003FB711BE06A
:10257000FA7949F2B853C1F6FF739B1893F82031EA
:10258000002B0DD0FA7949F2B853C1F6FF739B18AE
:1025900093F87C31002B03D1BB7903F10103BB71AC
:1025A000FB7903F10103FB71FB795B2B8CBF0023EB
:1025B0000123DBB2002BDBD1BB79002B2BD049F2FE
:1025C000B853C1F6FF734FF001021A704FF00003C9
:1025D000FB710DE0FA7949F2B853C1F6FF739B180D
:1025E0004FF0000283F87C21FB7903F10103FB71BA
:1025F000FB795B2B8CBF00230123DBB2002BE9D1DD
:1026000009E04FF0010000F06BFB00BF04E000BFE9
:1026100002E000BF00E000BF07F10807BD4680BD33
:1026200080B584B000AF02460B46FA71BB714FF023
:102630000003FB73FA7949F2B853C1F6FF739B1894
:1026400093F82031012B21D0022B72D0002B40F0C7
:10265000B480BB79002B00F0B580FA7949F2B85309
:10266000C1F6FF739B184FF0010283F82021FA791D
:1026700049F2B853C1F6FF739B184FF0000283F87C
:102680007C21FB79184600F06FF99BE0BB79002BA9
:1026900040F09A80FA7949F2B853C1F6FF739B185B
:1026A0001B7B012B0ED0022B24D0002B2DD1FA79CD
:1026B00049F2B853C1F6FF739B184FF0000283F83C
:1026C000202127E0F979FA7949F2B853C1F6FF736E
:1026D0009B1893F87C31002B02D04FF0000201E0F0
:1026E0004FF0020249F2B853C1F6FF735B1883F84A
:1026F00020210FE0FA7949F2B853C1F6FF739B1815
:102700004FF0020283F8202104E04FF0020000F0B5
:10271000E7FA00BFFA7949F2B853C1F6FF739B1884
:1027200093F82031002B51D1FB7B03F10103FB73A4
:102730004CE0BB79002B14D0FA7949F2B853C1F6BA
:10274000FF739B184FF0010283F82021FA7949F2B8
:10275000B853C1F6FF739B184FF0000283F87C2139
:1027600037E0FA7949F2B853C1F6FF739B181B7B27
:10277000012B13D1FA7949F2B853C1F6FF739B18B4
:1027800093F87C31002B09D0FA7949F2B853C1F69D
:10279000FF739B184FF0000283F82021FA7949F269
:1027A000B853C1F6FF739B1893F82031002B0FD15B
:1027B000FB7B03F10103FB730AE04FF0030000F021
:1027C0008FFA06E000BF04E000BF02E000BF00E0B7
:1027D00000BFFB7B002B03D0FB79184600F09CF96F
:1027E00007F11007BD4680BD80B582B000AF49F249
:1027F000B853C1F6FF734FF0000283F8382249F254
:10280000B853C1F6FF734FF0000283F839224FF43A
:102810000243C4F266234FF001021A6049F2B85332
:10282000C1F6FF731B78012B04D0022B4CD0002B78
:1028300053D04CE049F2B853C1F6FF731B7AFB71D9
:102840004FF00003FB7134E0FA7949F2B853C1F656
:10285000FF739B1893F82031022B16D1FA7949F2B5
:10286000B853C1F6FF739B181B7B022B0DD0FA796E
:1028700049F2B853C1F6FF739B184FF0000283F87A
:102880002021FB79184600F047F9F979FA7949F2E5
:10289000B853C1F6FF739B1893F8202149F2B8533F
:1028A000C1F6FF735B1883F87C21FB7903F1010308
:1028B000FB71FB795B2B8CBF00230123DBB2002B68
:1028C000C2D100F00FF809E000F00CF806E04FF07C
:1028D000040000F005FA00BF00E000BF07F10807A0
:1028E000BD4680BD80B582B000AF4FF00003FB71E4
:1028F0000DE0FA7949F2B853C1F6FF739B184FF017
:10290000000283F82021FB7903F10103FB71FB79BD
:102910005B2B8CBF00230123DBB2002BE9D149F2F2
:10292000B853C1F6FF734FF000021A7049F2B85362
:10293000C1F6FF734FF000021A7249F2B853C1F6A4
:10294000FF734FF00002DA7249F2B853C1F6FF7319
:10295000DA7A49F2B853C1F6FF739A7200F080F93F
:1029600007F10807BD4680BD80B584B000AF0346BF
:10297000FB714FF00003FB73FB7BBB73FA7949F2E9
:10298000B853C1F6FF739B1893F8683003F0010346
:10299000002B0CD049F2B853C1F6FF739B7A03F1B8
:1029A0000103DAB249F2B853C1F6FF739A72FA79A9
:1029B00049F2B853C1F6FF739B1893F8683003F0DF
:1029C0000203002B0CD049F2B853C1F6FF73DB7A37
:1029D00003F10103DAB249F2B853C1F6FF73DA72B8
:1029E000FA7949F2B853C1F6FF739B1893F8C430D3
:1029F000032B00F2808001A252F823F00D2A000080
:102A00001D2A0000512A0000852A000049F2B8530F
:102A1000C1F6FF734FF000025A7279E0BB7B002BC6
:102A20006FD049F2B853C1F6FF735B7A022B07D11E
:102A300049F2B853C1F6FF734FF003025A7260E0D7
:102A400049F2B853C1F6FF734FF001025A7258E0D1
:102A5000FB7B002B57D049F2B853C1F6FF735B7A6A
:102A6000012B07D149F2B853C1F6FF734FF00302AF
:102A70005A7248E049F2B853C1F6FF734FF00202B0
:102A80005A7240E0BB7B002B02D1FB7B002B3CD079
:102A9000BB7B002B15D049F2B853C1F6FF735B7AAC
:102AA000022B07D149F2B853C1F6FF734FF003026E
:102AB0005A7206E049F2B853C1F6FF734FF00102B3
:102AC0005A72FB7B002B22D049F2B853C1F6FF7338
:102AD0005B7A012B07D149F2B853C1F6FF734FF06F
:102AE00003025A7213E049F2B853C1F6FF734FF074
:102AF00002025A720BE04FF0050000F0F1F800BF3F
:102B000006E000BF04E000BF02E000BF00E000BF3D
:102B100007F11007BD4680BD80B582B000AF034607
:102B2000FB71FA7949F2B853C1F6FF739B1893F819
:102B3000C43003F00103002B13D049F2B853C1F69F
:102B4000FF739B7A002B0CD049F2B853C1F6FF7388
:102B50009B7A03F1FF33DAB249F2B853C1F6FF733F
:102B60009A72FA7949F2B853C1F6FF739B1893F839
:102B7000C43003F00203002B13D049F2B853C1F65E
:102B8000FF73DB7A002B0CD049F2B853C1F6FF7308
:102B9000DB7A03F1FF33DAB249F2B853C1F6FF73BF
:102BA000DA7200F05DF849F2B853C1F6FF739B7A10
:102BB000002B24D0FA7949F2B853C1F6FF739B1861
:102BC00093F8683003F00103002B18D0FA7949F22A
:102BD000B853C1F6FF739B1893F8C43003F0010398
:102BE000002B0CD149F2B853C1F6FF739B7A03F165
:102BF000FF33DAB249F2B853C1F6FF739A7249F261
:102C0000B853C1F6FF73DB7A002B24D0FA7949F26E
:102C1000B853C1F6FF739B1893F8683003F00203B2
:102C2000002B18D0FA7949F2B853C1F6FF739B18FC
:102C300093F8C43003F00203002B0CD149F2B853CF
:102C4000C1F6FF73DB7A03F1FF33DAB249F2B8530E
:102C5000C1F6FF73DA7207F10807BD4680BD00BFF9
:102C600080B400AF49F2B853C1F6FF735B7A03F04A
:102C70000103002B13D049F2B853C1F6FF739B7ABE
:102C8000002B0CD149F2B853C1F6FF735B7A23F0E5
:102C90000103DAB249F2B853C1F6FF735A7249F22E
:102CA000B853C1F6FF735B7A03F00203002B13D015
:102CB00049F2B853C1F6FF73DB7A002B0CD149F20D
:102CC000B853C1F6FF735B7A23F00203DAB249F21C
:102CD000B853C1F6FF735A72BD4680BC704700BF3F
:102CE00080B582B000AF78604FF040004FF0010136
:102CF000FFF796FC7B689AB249F2B853C1F6FF73AE
:102D0000A3F8342207F10807BD4680BD80B582B024
:102D100000AF4FF00103FB7149F68403C1F6FF7366
:102D200093F85430012B0ED149F66010C1F6FF70B4
:102D300014F096FD034683F00103DBB2002B02D0B2
:102D40004FF0010301E04FF00003002B02D04FF0E1
:102D50000003FB7149F2B853C1F6FF731B7A422B93
:102D60000AD1FB79002B07D04FF40243C4F266234B
:102D70004FF000021A6006E04FF40243C4F26623EB
:102D80004FF001021A6007F10807BD4680BD00BF81
:102D900080B483B000AF78604FF00003184607F1AD
:102DA0000C07BD4680BC704780B582B000AF4FF0C5
:102DB0000003FB7112E0F97949F2FC72C1F6FF726F
:102DC0000B464FEA43035B184FEA4303D3184FF017
:102DD00000021A80FB7903F10103FB71FB79032BDD
:102DE0008CBF00230123DBB2002BE4D149F2F47342
:102DF000C1F6FF734FF000021A8049F2F673C1F674
:102E0000FF734FF000021A7049F2B853C1F6FF7316
:102E10004FF00002A3F83A224FF000004FF0640197
:102E20006FF0C70200F0ECF84FF002004FF4AF7102
:102E30006FF0310200F0E4F807F10807BD4680BDED
:102E400080B582B000AF4AF6B403C1F6FF73D3F881
:102E5000E02246F26763C6F2666383FB02134FEA21
:102E600063014FEAE273CB1A9BB21A464FEA820221
:102E7000D3189BB29AB249F2FC73C1F6FF731A8061
:102E80004AF6B403C1F6FF73D3F8E02446F2676351
:102E9000C6F2666383FB02134FEA63014FEAE273F3
:102EA000CB1A9BB21A464FEA8202D3189BB29AB24F
:102EB00049F2FC73C1F6FF739A814FF00003FB7176
:102EC0005BE0FB79012B53D0FB7903F10F03DBB2FD
:102ED0004FEA4303BB71F97949F2FC72C1F6FF7204
:102EE0000B464FEA43035B184FEA4303D318188895
:102EF000F97949F2FC72C1F6FF720B464FEA4303BF
:102F00005B184FEA4303D3185B8802B21BB29A42A4
:102F100005DABB7918464FF00101FFF781FBBB7959
:102F200003F10103BB71F97949F2FC72C1F6FF723A
:102F30000B464FEA43035B184FEA4303D318188844
:102F4000F97949F2FC72C1F6FF720B464FEA43036E
:102F50005B184FEA4303D3189B8802B21BB29A4214
:102F600007DDBB7918464FF00101FFF759FB00E080
:102F700000BFFB7903F10103FB71FB79022B8CBFCE
:102F800000230123DBB2002B9BD149F2FC73C1F675
:102F9000FF731A8849F2FC73C1F6FF735B8812B2A3
:102FA0001BB29A4206DA49F2F473C1F6FF734FF08E
:102FB00008021A8049F2F473C1F6FF731B88002BD4
:102FC0000CD049F2F473C1F6FF731B8803F1FF3391
:102FD0009AB249F2F473C1F6FF731A8049F2F4739E
:102FE000C1F6FF731B88002B05D04FF01E004FF079
:102FF0000101FFF715FB07F10807BD4680BD00BFC3
:1030000080B582B000AF13460246FA710A46BA8014
:103010007B80FB79032B3FD801A252F823F000BF3D
:10302000313000004B300000653000007F30000080
:1030300049F2FC73C1F6FF73BA889A8049F2FC73B7
:10304000C1F6FF737A885A802BE049F2FC73C1F60F
:10305000FF73BA885A8149F2FC73C1F6FF737A880C
:103060001A811EE049F2FC73C1F6FF73BA881A8216
:1030700049F2FC73C1F6FF737A88DA8111E049F2F4
:10308000FC73C1F6FF73BA88DA8249F2FC73C1F6A9
:10309000FF737A889A8204E04FF02800FFF720FE41
:1030A00000BF07F10807BD4680BD00BF000000005B
:1030B00080B483B000AF78604FF00003184607F18A
:1030C0000C07BD4680BC704780B586B000AF4FF09E
:1030D0000003FB754FF00003BB754FF000033B7519
:1030E0004FF00003FB744FF000037B754FF00003BB
:1030F000FB604FF40443C4F20303FB6049F6501332
:10310000C1F6FF731B6803F1010249F65013C1F6C3
:10311000FF731A6049F65813C1F6FF731B68002B42
:1031200040F05E8349F6DC03C1F6FF734FF0810285
:103130001A7049F6DC03C1F6FF735B7803F10103F3
:10314000DAB249F6DC03C1F6FF735A7049F6DC03C4
:10315000C1F6FF734FF00002DA7048F20C23C4F29C
:1031600066231B68DAB249F6DC03C1F6FF7383F805
:1031700053204FF000037B750CE07A7D49F6DC03A9
:10318000C1F6FF739B184FF000021A717B7D03F1AB
:1031900001037B757B7D0B2B8CBF00230123DBB2EE
:1031A000002BEAD14FF00003BB752AE0BA7D49F24B
:1031B000B853C1F6FF739B1893F82031002B1CD035
:1031C000BB7D4FEAE3033B75BB7D03F007034FF084
:1031D000010202FA03F3FB74397D3A7D49F6DC0300
:1031E000C1F6FF739B181A79FB7C1343DAB249F6D8
:1031F000DC03C1F6FF735B181A71BB7D03F1010399
:10320000BB75BB7D5B2B8CBF00230123DBB2002B86
:10321000CCD149F68403C1F6FF7393F8502049F6E8
:10322000DC03C1F6FF7383F8502049F2B853C1F6AE
:10323000FF73B3F83432DAB249F6DC03C1F6FF7338
:1032400083F8512049F2B853C1F6FF73B3F8363210
:10325000DAB249F6DC03C1F6FF7383F8522049F66F
:10326000DC03C1F6FF734FF000021A6449F6341311
:10327000C1F6FF731A6849F6DC03C1F6FF735A62A0
:1032800049F63813C1F6FF731A6849F6DC03C1F634
:10329000FF731A6249F6DC03C1F6FF734FF00002B8
:1032A0009A6249F6DC03C1F6FF734FF00002DA625E
:1032B00049F6DC03C1F6FF734FF000021A6349F6CA
:1032C000DC03C1F6FF734FF000025A6349F6DC03DA
:1032D000C1F6FF734FF000029A6349F6DC03C1F6B2
:1032E000FF734FF00002DA6349F68403C1F6FF73FF
:1032F00093F85030082B00F2258201A252F823F0F7
:1033000025330000AB33000033340000BB34000031
:1033100043350000CB350000533600008F360000E7
:10332000173700004AF6B403C1F6FF73D3F8E02262
:1033300049F6DC03C1F6FF739A624AF6B403C1F69C
:10334000FF73D3F8E02349F6DC03C1F6FF73DA62BA
:103350004AF6B403C1F6FF73D3F8E02449F6DC0360
:10336000C1F6FF731A634AF6B403C1F6FF73D3F8CC
:10337000E02049F6DC03C1F6FF735A634AF6B40352
:10338000C1F6FF73D3F8E02149F6DC03C1F6FF7301
:103390009A634AF6B403C1F6FF73D3F8E02549F601
:1033A000DC03C1F6FF73DA63F9E14AF6B403C1F650
:1033B000FF73D3F8F02249F6DC03C1F6FF739A627B
:1033C0004AF6B403C1F6FF73D3F8D82249F6DC03FA
:1033D000C1F6FF73DA624AF6B403C1F6FF73D3F89D
:1033E000DC321A6849F6DC03C1F6FF731A634AF649
:1033F000B403C1F6FF73D3F8DC3203F108031A6893
:103400004AF6B403C1F6FF73D3F8DC321B68D21A54
:1034100049F6DC03C1F6FF735A634AF6B403C1F6FA
:10342000FF73D3F8E02249F6DC03C1F6FF739A6319
:10343000B5E14AF6B403C1F6FF73D3F8F02349F6B9
:10344000DC03C1F6FF739A624AF6B403C1F6FF7358
:10345000D3F8D82349F6DC03C1F6FF73DA624AF6E3
:10346000B403C1F6FF73D3F8DC331A6849F6DC0302
:10347000C1F6FF731A634AF6B403C1F6FF73D3F8BB
:10348000DC3303F108031A684AF6B403C1F6FF738C
:10349000D3F8DC331B68D21A49F6DC03C1F6FF739C
:1034A0005A634AF6B403C1F6FF73D3F8E02349F632
:1034B000DC03C1F6FF739A6371E14AF6B403C1F607
:1034C000FF73D3F8F02449F6DC03C1F6FF739A6268
:1034D0004AF6B403C1F6FF73D3F8D82449F6DC03E7
:1034E000C1F6FF73DA624AF6B403C1F6FF73D3F88C
:1034F000DC341A6849F6DC03C1F6FF731A634AF636
:10350000B403C1F6FF73D3F8DC3403F108031A687F
:103510004AF6B403C1F6FF73D3F8DC341B68D21A41
:1035200049F6DC03C1F6FF735A634AF6B403C1F6E9
:10353000FF73D3F8E02449F6DC03C1F6FF739A6306
:103540002DE14AF6B403C1F6FF73D3F8F02049F633
:10355000DC03C1F6FF739A624AF6B403C1F6FF7347
:10356000D3F8D82049F6DC03C1F6FF73DA624AF6D5
:10357000B403C1F6FF73D3F8DC301A6849F6DC03F4
:10358000C1F6FF731A634AF6B403C1F6FF73D3F8AA
:10359000DC3003F108031A684AF6B403C1F6FF737E
:1035A000D3F8DC301B68D21A49F6DC03C1F6FF738E
:1035B0005A634AF6B403C1F6FF73D3F8E02049F624
:1035C000DC03C1F6FF739A63E9E04AF6B403C1F67F
:1035D000FF73D3F8F02149F6DC03C1F6FF739A625A
:1035E0004AF6B403C1F6FF73D3F8D82149F6DC03D9
:1035F000C1F6FF73DA624AF6B403C1F6FF73D3F87B
:10360000DC311A6849F6DC03C1F6FF731A634AF627
:10361000B403C1F6FF73D3F8DC3103F108031A6871
:103620004AF6B403C1F6FF73D3F8DC311B68D21A33
:1036300049F6DC03C1F6FF735A634AF6B403C1F6D8
:10364000FF73D3F8E02149F6DC03C1F6FF739A63F8
:10365000A5E049F61823C1F6FF731B681A4649F620
:10366000DC03C1F6FF739A6249F61423C1F6FF73B7
:103670001B681A4649F6DC03C1F6FF73DA6249F6A5
:10368000DC03C1F6FF734FF000021A6387E04AF6CD
:10369000B403C1F6FF73D3F8F02549F6DC03C1F695
:1036A000FF739A624AF6B403C1F6FF73D3F8D825C4
:1036B00049F6DC03C1F6FF73DA624AF6B403C1F6D9
:1036C000FF73D3F8DC351A6849F6DC03C1F6FF73E3
:1036D0001A634AF6B403C1F6FF73D3F8DC3503F17D
:1036E00008031A684AF6B403C1F6FF73D3F8DC3254
:1036F0001B68D21A49F6DC03C1F6FF735A634AF617
:10370000B403C1F6FF73D3F8E02549F6DC03C1F634
:10371000FF739A6343E049F62803C1F6FF735B68C1
:103720001A4649F6DC03C1F6FF739A6249F628038C
:10373000C1F6FF739B681A4649F6DC03C1F6FF73B6
:10374000DA622CE049F6DC03C1F6FF734FF00002A9
:103750009A6249F6DC03C1F6FF734FF00002DA62A9
:1037600049F6DC03C1F6FF734FF000021A6349F615
:10377000DC03C1F6FF734FF000025A6349F6DC0325
:10378000C1F6FF734FF000029A6349F6DC03C1F6FD
:10379000FF734FF00002DA630AF06CF900BFC74B09
:1037A000BB6049F6DC03C1F6FF7393F8563003F1B2
:1037B0000103DAB249F6DC03C1F6FF7383F8562041
:1037C00049F6DC03C1F6FF734FF0180283F8572067
:1037D00049F66C10C1F6FF704FF4FA7114F020F83E
:1037E00049F65813C1F6FF731B68042B00F2C08121
:1037F00001A252F823F000BF0D3800007738000016
:1038000093390000473A0000C13A000048F2200313
:10381000C4F266234FF000021A6049F67C03C1F639
:10382000FF73186849F6DC01C1F6FF714FF05802CA
:1038300011F064F949F67C03C1F6FF73186811F0C2
:103840004BF849F66C10C1F6FF7041F2883113F065
:10385000E7FF48F22003C4F266234FF001021A602A
:1038600049F65813C1F6FF734FF001021A604FF08A
:103870000003FB7583E149F67C03C1F6FF7307F192
:1038800006021868114611F037FA0346002B3BD0A8
:10389000FB88012B06D948F22003C4F266234FF0BF
:1038A00000021A60FB88572B2AD949F67C03C1F61F
:1038B000FF73186849F68401C1F6FF714FF0580292
:1038C00011F0F2F849F67C03C1F6FF73186811F0A5
:1038D00003F849F67C03C1F6FF73186810F0DAFFAD
:1038E00049F65813C1F6FF734FF002021A6049F609
:1038F0006C10C1F6FF7041F2883113F091FF06E0C1
:103900004FF00003FB7502E04FF00003FB7549F632
:103910006C10C1F6FF7013F0A3FF0346002B00F0FC
:103920002B8149F63C13C1F6FF731B6803F10102BA
:1039300049F63C13C1F6FF731A6048F22003C4F243
:1039400066234FF000021A6049F67C03C1F6FF734C
:10395000186810F0C1FF49F6D810C1F6FF7013F0D7
:103960007FFF0346002B0CD04FF042004FF00101C7
:10397000FEF756FE4FF40243C4F266234FF00002F6
:103980001A6049F65813C1F6FF734FF004021A602B
:10399000F2E049F65413C1F6FF731B6803F101020C
:1039A00049F65413C1F6FF731A6049F68403C1F651
:1039B000FF731B78812B07D149F68403C1F6FF738F
:1039C00093F85730182B14D049F68003C1F6FF73D3
:1039D0001B6803F1010249F68003C1F6FF731A6008
:1039E00049F68003C1F6FF731B68FB750AF03AF9CC
:1039F00019E049F65023C1F6FF731B68002B06D16E
:103A000049F65023C1F6FF734FF001021A6049F6E0
:103A10008003C1F6FF734FF000021A604FF00003FD
:103A2000FB7500F0E9FE49F66C10C1F6FF704FF02F
:103A30000A0113F0F5FE49F65813C1F6FF734FF073
:103A400003021A609BE049F66C10C1F6FF7013F098
:103A500007FF0346002B00F09180FA6853786FF35C
:103A6000C3035370FA6853786FF30413537049F625
:103A70007C03C1F6FF73186810F02EFFFA68137903
:103A80006FF346131371FA68537843F08003537051
:103A9000FA68537843F01003537049F66C10C1F67E
:103AA000FF7041F2883113F0BBFE49F65813C1F69E
:103AB000FF734FF000021A6060E000BFDE98FF1F46
:103AC00049F68403C1F6FF731B78812B0ED149F6AA
:103AD0008403C1F6FF7393F85730182B06D149F6CB
:103AE0005D13C1F6FF731B78002B14D049F65D13EC
:103AF000C1F6FF734FF000021A7049F67C03C1F65D
:103B0000FF73186810F0E8FE49F67C03C1F6FF73F6
:103B1000186810F0BFFE09F0EBFF49F67C03C1F610
:103B2000FF73186849F6DC01C1F6FF714FF05802C7
:103B300010F0E4FF49F67C03C1F6FF73186810F03B
:103B4000CBFE49F66C10C1F6FF7041F2883113F0DC
:103B500067FE48F22003C4F266234FF001021A60A8
:103B600049F65813C1F6FF734FF001021A6006E0E0
:103B70004FF03203FB7502E000BF00E000BFFB7DA9
:103B8000184607F11807BD4680BD00BF80B58AB052
:103B900008AF4FF00003FB714FF00003BB714FF013
:103BA00064004FF064014FF001024FF0640310F025
:103BB0009BF8024649F67803C1F6FF731A6049F68E
:103BC0007803C1F6FF731B68002B03D14FF001038C
:103BD000FB7153E049F67803C1F6FF734FF0010221
:103BE00000924FF0020201924FF0000202924FF059
:103BF000000203924FF0020204924FF0020205927B
:103C00004FF0000206924FF0020019684FF00902CF
:103C10004FF00E0306F094FA0346BB71BB79002BFC
:103C200022D049F67803C1F6FF7318684FF00001FF
:103C300010F018FD024649F67C03C1F6FF731A60C6
:103C400049F67C03C1F6FF73186810F075FD034652
:103C5000BB71BB79002B03D04FF00003FB710DE06B
:103C60004FF00103FB7109E049F67C03C1F6FF73D5
:103C70004FF000021A604FF00103FB7149F6441344
:103C8000C1F6FF734FF000021A6049F64C13C1F6FB
:103C9000FF734FF000021A6049F64013C1F6FF733C
:103CA0004FF000021A6049F64813C1F6FF734FF057
:103CB00000021A6049F65813C1F6FF734FF0030271
:103CC0001A6048F22003C4F266234FF000021A6023
:103CD00049F66C10C1F6FF704FF4FA7113F0A0FDB5
:103CE000FB79184607F10807BD4680BD00000000BB
:103CF00080B483B000AF78604FF00003184607F13E
:103D00000C07BD4680BC704780B400AF49F2000389
:103D1000C1F6FF734FF44052C4F203021A6049F235
:103D20000403C1F6FF734FF00002C4F206021A60EA
:103D300049F20803C1F6FF734FF4E042C4F20202F5
:103D40001A6049F20C03C1F6FF734FF47042C4F2DB
:103D500003021A6049F21003C1F6FF734FF40052D8
:103D6000C4F206021A6049F21403C1F6FF734FF45D
:103D70000342C4F203021A6049F65023C1F6FF73EE
:103D80004FF000021A60BD4680BC704780B582B01B
:103D900000AF12F085F94FF0000011F061F8FFF765
:103DA000B3FF01F077F9FCF78FFBFDF701F903464C
:103DB000FB71FB79002B0DD04FF041004FF001015A
:103DC000FEF72EFCFB799AB249F2B853C1F6FF73A5
:103DD000A3F83622FDF7E0FA49F6E813C1F6FF73BF
:103DE0001A694AF6B403C1F6FF73C3F8EC2249F628
:103DF000E813C1F6FF735A694AF6B403C1F6FF73BC
:103E0000C3F8EC2349F6E813C1F6FF739A694AF642
:103E1000B403C1F6FF73C3F8EC2449F6E813C1F606
:103E2000FF735A684AF6B403C1F6FF73C3F8EC2176
:103E300007F10807BD4680BD80B582B000AF4FF0E6
:103E40000003FB71FDF7C0FEFEF7AEFF49F68410DC
:103E5000C1F6FF7041F2883113F0E2FC49F6901090
:103E6000C1F6FF7041F2883113F0DAFC49F69C107C
:103E7000C1F6FF7042F2107113F0D2FC49F6A8109F
:103E8000C1F6FF7042F2107113F0CAFC49F6B4108B
:103E9000C1F6FF7042F2107113F0C2FC49F6C01077
:103EA000C1F6FF7042F2107113F0BAFC49F6CC1063
:103EB000C1F6FF704FF47A7113F0B2FCFFF766FEA3
:103EC0000346FB71FB79002B03D1FB79002B00D15A
:103ED00062B648F21023C4F266234FF000021A6063
:103EE00048F21423C4F266234FF001021A60FB79F2
:103EF000184607F10807BD4680BD00BF80B582B0F7
:103F000000AF4FF00003FB714FF00003BB7149F6A7
:103F1000D810C1F6FF7042F2107113F081FC49F61F
:103F2000D810C1F6FF7013F0C3FC66E00EF0BCFFC2
:103F3000FFF7CAF80346FB71FB79002B27D0FB790A
:103F40001E2B2FD949F6D810C1F6FF7013F088FC4C
:103F50000346002B06D149F65023C1F6FF731B68B8
:103F6000012B02D14FF0010301E04FF00003002BC1
:103F700018D04FF042004FF00101FEF751FB4FF413
:103F80000243C4F266234FF000021A600AE000F018
:103F9000FBF849F65023C1F6FF731B68012B01D1D2
:103FA00000F0DCF949F64C23C1F6FF731B68142BB3
:103FB0000FD900F0F9FA00F085F800F0C9FAFEF721
:103FC000F7F949F64C23C1F6FF734FF000021A606F
:103FD0000BE049F64C23C1F6FF731B6803F10102A5
:103FE00049F64C23C1F6FF731A6000F013F849F646
:103FF0005820C1F6FF7014F013F8BB7983F0010369
:10400000DBB2002B92D1FB79184607F10807BD46B9
:1040100080BD00BF80B400AF49F60073C1F6FF73E6
:104020001A6844F6D353C1F26203A3FB02134FEAAA
:1040300093134FF47A7101FB03F3D31A002B14BFCF
:1040400000230123DBB2002B35D048F21023C4F249
:1040500066231B68002B14BF00230123DBB2002B57
:1040600007D048F21023C4F266234FF001021A6011
:1040700006E048F21023C4F266234FF000021A60F3
:1040800048F21423C4F266231B68002B14BF0023DC
:104090000123DBB2002B07D048F21423C4F26623BD
:1040A0004FF001021A6006E048F21423C4F26623BE
:1040B0004FF000021A604FF000031846BD4680BC66
:1040C000704700BF80B400AF49F68403C1F6FF73A8
:1040D00093F85430032B1ED149F68403C1F6FF73C5
:1040E00093F855300C2B07D049F68403C1F6FF73C3
:1040F00093F855300A2B0ED148F20423C4F26623FC
:104100004FF001021A6048F20823C4F266234FF010
:1041100001021A6034E049F2B853C1F6FF7393F814
:104120006231002B0FD149F2B853C1F6FF7393F8F7
:104130005031002B07D149F2B853C1F6FF7393F801
:104140005431002B0ED048F20423C4F266234FF002
:1041500001021A6048F20823C4F266234FF00102FC
:104160001A600DE048F20423C4F266234FF0000207
:104170001A6048F20823C4F266234FF000021A6066
:10418000BD4680BC704700BF80B500AF49F68403D0
:10419000C1F6FF7393F84930002B10D149F2B853A0
:1041A000C1F6FF734FF0010283F8F62149F2B853CC
:1041B000C1F6FF734FF0010283F8F7210FE049F2D7
:1041C000B853C1F6FF734FF0000283F8F62149F2AD
:1041D000B853C1F6FF734FF0000283F8F72149F698
:1041E0008403C1F6FF7393F85430062B00F2B480B9
:1041F00001A252F823F000BF59430000154200000D
:104200001542000057420000BD420000CF420000AE
:10421000CF42000049F2B853C1F6FF734FF00002DD
:1042200083F8F72149F2B853C1F6FF734FF000024B
:1042300083F8F62149F2B853C1F6FF734FF000023C
:1042400083F8FB2149F2B853C1F6FF734FF0000227
:1042500083F8FA2181E049F2B853C1F6FF734FF0B9
:10426000010283F8F72149F2B853C1F6FF734FF00A
:10427000010283F8F62149F2B853C1F6FF734FF0FB
:10428000010283F8FB2149F2B853C1F6FF734FF0E6
:10429000010283F8FA214FF000004FF064016FF043
:1042A000C702FEF7ADFE4FF002004FF4AF716FF0A2
:1042B0006302FEF7A5FEFEF7C3FD4EE049F2B853D8
:1042C000C1F6FF734FF0000283F8382245E049F64B
:1042D0008403C1F6FF7393F84C30002B1BD149F2D5
:1042E000B853C1F6FF7393F83832002B05D04FF066
:1042F00017004FF00101FEF793F949F2B853C1F6E8
:10430000FF7393F83932002B05D04FF007004FF0C0
:104310000101FEF785F949F68403C1F6FF731B6AB4
:104320009BB21BB24FF000004FF064011A46FEF73B
:1043300067FE49F68403C1F6FF7393F84D30002BF6
:1043400007D14FF002004FF4AF716FF02702FEF774
:1043500057FEFEF775FD00E000BF80BD80B582B05E
:1043600000AF4FF00003FB714FF00003BB7149F643
:104370008403C1F6FF7393F85030002B40F0E380C4
:104380004FF00003FB7149F68403C1F6FF7393F805
:104390004E30002B13D14AF6B403C1F6FF73D3F8A5
:1043A000E02349F68403C1F6FF73DB6AD31A002BBE
:1043B000B8BF5B420A2B02DD4FF00403FB7149F6E4
:1043C0008403C1F6FF7393F84D30002B13D14AF6E6
:1043D000B403C1F6FF73D3F8E02449F68403C1F6B1
:1043E000FF731B6BD31A002BB8BF5B420A2B02DD95
:1043F0004FF00503FB71FB79002B07D149F68410C0
:10440000C1F6FF7047F2305113F00AFA49F68410F2
:10441000C1F6FF7013F024FA0346002B05D0FB7998
:1044200018464FF00101FEF7FBF84FF00003FB7157
:104430004AF6B403C1F6FF73D3F8E037A3F2DC53B6
:10444000002BB8BF5B42962B02DD4FF00103FB71DE
:104450004AF6B403C1F6FF73D3F8E038A3F6C413E9
:10446000002BB8BF5B42FA2B02DD4FF00103FB715A
:104470004AF6B403C1F6FF73D3F8E039A3F2DC5374
:10448000002BB8BF5B42962B02DD4FF00103FB719E
:104490004AF6B403C1F6FF73D3F8E03AA3F2DC5353
:1044A000002BB8BF5B42962B02DD4FF00103FB717E
:1044B0004AF6B403C1F6FF73D3F8E03BA3F6C41386
:1044C000002BB8BF5B42FA2B02DD4FF00103FB71FA
:1044D0004AF6B403C1F6FF73D3F8E03CA3F272636B
:1044E000002BB8BF5B42A52B02DD4FF00103FB712F
:1044F0004AF6B403C1F6FF73D3F8E03DA3F272634A
:10450000002BB8BF5B42A52B02DD4FF00103FB710E
:10451000FB79002B07D149F69010C1F6FF7041F2EC
:10452000883113F07DF949F69010C1F6FF7013F051
:1045300097F90346002B07D04FF044004FF00101DC
:10454000FEF76EF800E000BF07F10807BD4680BD2A
:1045500080B582B000AF11F0A1FB11F033FA034631
:10456000002B0CBF00230123DBB2002B18D011F06D
:104570008FFA03467B607B6840F2B722934207D0F4
:10458000B3F52E7F09D040F2B622934207D002E065
:10459000FEF72AF904E000BF02E000BF00E000BF20
:1045A00007F10807BD4680BD80B582B000AF49F66F
:1045B0008403C1F6FF7393F85330012B10D149F6F1
:1045C0008403C1F6FF739B8A184612F05BFA024619
:1045D0000B461046194612F083FD0346FB8018E097
:1045E00049F68403C1F6FF739B8A184612F04AFA13
:1045F00002460B46104619467DA3D3E9002312F06C
:10460000A7FA02460B461046194612F069FD03460A
:10461000FB80FB880A2B0AD9FA884CF6CD43CCF6EE
:10462000CC43A3FB02134FEAD303BB8001E0FB881A
:10463000BB80FA88BB88D3187B80FA88BB88D31AE2
:104640003B807A8849F61823C1F6FF731B689A42AB
:1046500008D249F6A810C1F6FF7042F2107113F0AB
:10466000DFF807E049F69C10C1F6FF7042F21071C6
:1046700013F0D6F83A8849F61823C1F6FF731B6881
:104680009A4208D949F69C10C1F6FF7042F21071A7
:1046900013F0C6F807E049F6A810C1F6FF7042F221
:1046A000107113F0BDF849F6A810C1F6FF7013F0B1
:1046B000D7F80346002B08D149F69C10C1F6FF70CD
:1046C00013F0CEF80346002B02D04FF0010301E0B7
:1046D0004FF00003002B05D04FF030004FF00101E8
:1046E000FDF79EFF49F68403C1F6FF73DB8A184687
:1046F00012F0C8F902460B46104619464FF0000268
:104700004FF00003C4F2110312F022FA02460B46E6
:104710001046194612F0E4FC0346FB80FA884CF67A
:10472000CD43CCF6CC43A3FB02134FEAD303BB80AB
:10473000FA88BB88D3187B80FA88BB88D31A3B8061
:104740007A8849F61423C1F6FF731B689A4208D28F
:1047500049F6C010C1F6FF7043F6982113F060F8D7
:1047600007E049F6B410C1F6FF7043F6982113F044
:1047700057F83A8849F61423C1F6FF731B689A422A
:1047800008D949F6B410C1F6FF7043F6982113F02A
:1047900047F807E049F6C010C1F6FF7043F69821CC
:1047A00013F03EF849F6C010C1F6FF7013F058F848
:1047B0000346002B08D149F6B410C1F6FF7013F080
:1047C0004FF80346002B02D04FF0010301E04FF0F9
:1047D0000003002B05D04FF034004FF00101FDF72E
:1047E0001FFF07F10807BD4680BD00BFAFF3008083
:1047F000333333333333FB3F80B582B000AF49F6F8
:104800008403C1F6FF739B7803F1FF33102B00F292
:10481000718201A252F823F05D4800008348000035
:1048200089490000AF4900001F4A0000454A0000C6
:10483000B54A0000494B0000934B00002D4C00008E
:10484000814C0000F54C0000DB4C0000F3480000F8
:1048500019490000E14C0000EB4C00004AF6B4039B
:10486000C1F6FF73D3F8D82249F61C23C1F6FF73B3
:104870001A6049F61C23C1F6FF734FF000025A601C
:1048800045E24AF6B403C1F6FF73D3F8D82249F6DD
:104890001C23C1F6FF739A6049F61C23C1F6FF730F
:1048A0004FF00002CCF27A32DA6049F61C20C1F6F1
:1048B000FF7049F62C21C1F6FF714FF0010200F0A4
:1048C0002FFA0346FB71FB7983F00103DBB2002B67
:1048D00000F012824FF041004FF00101FDF7A0FE01
:1048E00049F2B853C1F6FF734FF07C02A3F83622A9
:1048F00002E24AF6B403C1F6FF73D3F8D82549F6AD
:104900001C23C1F6FF731A6049F61C23C1F6FF731E
:104910004FF000025A60FAE14AF6B403C1F6FF73A1
:10492000D3F8D82549F61C23C1F6FF739A6049F6DF
:104930001C23C1F6FF734FF00002CCF27A32DA602A
:1049400049F61C20C1F6FF7049F62C21C1F6FF7113
:104950004FF0040200F0E4F90346FB71FB7983F0A9
:104960000103DBB2002B00F0C9814FF041004FF092
:104970000101FDF755FE49F2B853C1F6FF734FF040
:104980007C02A3F83622B9E14AF6B403C1F6FF73FC
:10499000D3F8D82349F61C23C1F6FF731A6049F6F1
:1049A0001C23C1F6FF734FF000025A60AFE14AF6D4
:1049B000B403C1F6FF73D3F8D82349F61C23C1F61C
:1049C000FF739A6049F61C23C1F6FF734FF0000293
:1049D000C4F27A32DA6049F61C20C1F6FF7049F65B
:1049E0002C21C1F6FF714FF0020200F099F9034645
:1049F000FB71FB7983F00103DBB2002B00F08081B7
:104A00004FF041004FF00101FDF70AFE49F2B853A3
:104A1000C1F6FF734FF07D02A3F8362270E14AF62B
:104A2000B403C1F6FF73D3F8D82449F61C23C1F6AA
:104A3000FF731A6049F61C23C1F6FF734FF00002A2
:104A40005A6064E14AF6B403C1F6FF73D3F8D82480
:104A500049F61C23C1F6FF739A6049F61C23C1F680
:104A6000FF734FF00002C4F27A32DA6049F61C207C
:104A7000C1F6FF7049F62C21C1F6FF714FF0030219
:104A800000F04EF90346FB71FB7983F00103DBB2C2
:104A9000002B00F037814FF041004FF00101FDF78E
:104AA000BFFD49F2B853C1F6FF734FF07E02A3F881
:104AB000362227E14AF6B403C1F6FF73D3F8D820B3
:104AC00049F61C23C1F6FF731A6049F61C23C1F690
:104AD000FF734FF000025A604AF6B403C1F6FF7349
:104AE000D3F8D82149F62C23C1F6FF731A6049F692
:104AF0002C23C1F6FF734FF000025A6049F61C20C8
:104B0000C1F6FF704FF0010149F62C22C1F6FF7289
:104B10004FF0010300F0B4F90346FB71FB7983F019
:104B20000103DBB2002B00F0EF804FF041004FF0AB
:104B30000101FDF775FD49F2B853C1F6FF734FF05F
:104B40007F02A3F83622DFE04AF6B403C1F6FF7312
:104B5000D3F8D82049F61C23C1F6FF731A6049F632
:104B60001C23C1F6FF734FF000025A604AF6B403EB
:104B7000C1F6FF73D3F8D82149F62C23C1F6FF7391
:104B80001A6049F62C23C1F6FF734FF000025A60F9
:104B9000BDE04AF6B403C1F6FF73D3F8D82049F656
:104BA0001C23C1F6FF739A6049F61C23C1F6FF73FC
:104BB0004FF00002C4F2FA42DA604AF6B403C1F6DA
:104BC000FF73D3F8D82149F62C23C1F6FF739A60FE
:104BD00049F62C23C1F6FF734FF00002C4F2FA42EB
:104BE000DA6049F61C20C1F6FF704FF0020149F669
:104BF0002C22C1F6FF724FF0020300F041F9034688
:104C0000FB71FB7983F00103DBB2002B7ED04FF008
:104C100041004FF00101FDF703FD49F2B853C1F621
:104C2000FF734FF08002A3F836226FE04AF6B40318
:104C3000C1F6FF73D3F8E02049F6E813C1F6FF731D
:104C40001A6049F64023C1F6FF734FF000021A6064
:104C500049F63C23C1F6FF734FF000021A6049F693
:104C6000E813C1F6FF734FF00002DA6049F6E8136B
:104C7000C1F6FF734FF000029A6000F0E1F946E0E0
:104C800049F64023C1F6FF731A6849F6E813C1F6E6
:104C9000FF73DA6049F63C23C1F6FF734FF0000260
:104CA0001A6049F64023C1F6FF734FF000021A6004
:104CB0004AF6B403C1F6FF73D3F8E02049F6E813CF
:104CC000C1F6FF731A6049F6E813C1F6FF734FF09F
:104CD00000029A6000F0B4F919E0FDF703FE16E057
:104CE00000F0B2FA00F0ACF911E000F00FFB00F0B8
:104CF000A7F90CE000BF0AE000BF08E000BF06E033
:104D000000BF04E000BF02E000BF00E000BF08F009
:104D1000F7FD4FF00003184607F10807BD4680BDB8
:104D200080B588B000AFF860B9601346FB714FF0F2
:104D30000003FB77FB681B68BB61BA6940F2F313A1
:104D40009A4203DDBB69B3F5487F02DD4FF00003F3
:104D500090E0FB6803F108031A68FB681B68D31A2C
:104D6000BB61BA6940F21F339A4203DDBB69B3F5F8
:104D7000966F02DD4FF000037CE0FB79012B16D12A
:104D800049F2C440C1F6FF70F9684FF0100212F00A
:104D900097FE07F1170349F2C440C1F6FF704FF0C8
:104DA00010014FF4C07210F043FA0346FB77FB7911
:104DB000042B16D149F2F440C1F6FF70F9684FF0A8
:104DC000100212F07DFE07F1170349F2F440C1F61C
:104DD000FF704FF010014FF4107210F029FA0346E3
:104DE000FB77FB79022B16D149F2D440C1F6FF7054
:104DF000F9684FF0100212F063FE07F1170349F251
:104E0000D440C1F6FF704FF010014FF4E07210F083
:104E10000FFA0346FB77FB79032B16D149F2E440E6
:104E2000C1F6FF70F9684FF0100212F049FE07F169
:104E3000170349F2E440C1F6FF704FF010014FF440
:104E4000007210F0F5F90346FB77FB7F83F0010356
:104E5000DBB2002B0DD04FF041004FF00101FDF708
:104E6000DFFB49F2B853C1F6FF734FF07A02A3F8A3
:104E70003622FB7F184607F12007BD4680BD00BFE4
:104E800080B586B000AFF8607A600A46FA72BB72ED
:104E9000FB7A012B19D1FB6803F1080249F2A44304
:104EA000C1F6FF73996849F2A443C1F6FF731B680A
:104EB000C91AFB681B68CB181360FB6803F1080371
:104EC0004FF00002C4F2FA425A60FB681B687B6133
:104ED000FB681B68042B04DDFB681B68B3F5FA7FD5
:104EE00002DD4FF00003A6E0FB6803F108031A6837
:104EF000FB681B68D31A7B617A6940F21F339A42C0
:104F000003DD7B69B3F5966F02DD4FF0000392E09D
:104F100049F2A440C1F6FF70F9684FF0100212F098
:104F2000CFFD07F1110349F2A440C1F6FF704FF025
:104F300010014FF4807210F07BF90346FB74BB7ACA
:104F4000012B19D17B6803F1080249F2B443C1F681
:104F5000FF73996849F2B443C1F6FF731B68C91A1D
:104F60007B681B68CB1813607B6803F108034FF064
:104F70000002C4F2FA425A607B681B687B617B685E
:104F80001B68042B04DD7B681B68B3F5FA7F02DD28
:104F90004FF000034FE07B6803F108031A687B6859
:104FA0001B68D31A7B617A6940F21F339A4203DD92
:104FB0007B69B3F5966F02DD4FF000033BE049F2E9
:104FC000B440C1F6FF7079684FF0100212F078FD1E
:104FD00007F1110349F2B440C1F6FF704FF0100120
:104FE0004FF4A07210F024F90346BB74FB7C83F0ED
:104FF0000103DBB2002B13D0BB7C83F00103DBB2D7
:10500000002B0DD04FF041004FF00101FDF708FBE0
:1050100049F2B853C1F6FF734FF07B02A3F8362272
:10502000FB7C002B02D1BB7C002B02D04FF0010394
:1050300001E04FF00003184607F11807BD4680BD98
:1050400080B582B000AF07F1060349F6E810C1F65B
:10505000FF704FF020014FF4A06210F0E9F8034612
:10506000FB71FB7983F00103DBB2002B0DD04FF015
:1050700041004FF00101FDF7D3FA49F2B853C1F6F0
:10508000FF734FF07A02A3F8362207F10807BD46F6
:1050900080BD00BFB0B582B000AF07F1050349F68F
:1050A000E810C1F6FF704FF020014FF4A0620FF03E
:1050B00087FF0346FB71FB7983F00103DBB2002B12
:1050C0003FD04FF041004FF00101FDF7A9FA49F23E
:1050D000B853C1F6FF734FF09902A3F8362249F690
:1050E000E812C1F6FF7248F21013C0F20103144631
:1050F0001D460FCD0FC495E80F0084E80F0007F19F
:10510000050349F6E810C1F6FF704FF020014FF497
:10511000A06210F08DF80346BB71BB7983F00103E8
:10512000DBB2002B0DD04FF041004FF00101FDF735
:1051300077FA49F2B853C1F6FF734FF09A02A3F819
:10514000362207F10807BD46B0BD00BF80B582B06A
:1051500000AF49F68403C1F6FF731B8B1A4649F66C
:105160004023C1F6FF731B689A4206DC49F68403AC
:10517000C1F6FF731B8B002B60D149F60823C1F6E3
:10518000FF731B881A4649F64823C1F6FF731B6854
:105190009A4254D049F60823C1F6FF731B881A4679
:1051A00049F64823C1F6FF731A6049F6E813C1F6C1
:1051B000FF739B6803F1010249F6E813C1F6FF7320
:1051C0009A6049F65523C1F6FF731B7803F101037A
:1051D000DAB249F65523C1F6FF731A7049F6552322
:1051E000C1F6FF731B780A2B29D949F6E813C1F6DB
:1051F000FF739A6849F68403C1F6FF731B6CD31AD8
:10520000002BB8BF5B427B607B68142B0CDD7B6896
:105210003B2B09DC49F68403C1F6FF731A6C49F68F
:10522000E813C1F6FF739A60FFF70AFF49F65523AA
:10523000C1F6FF734FF000021A7000E000BF07F1E3
:105240000807BD4680BD00BF80B400AF4AF6B40376
:10525000C1F6FF73D3F8E8224AF6B403C1F6FF7330
:10526000C3F8EC224AF6B403C1F6FF73D3F8EC227C
:1052700049F6E813C1F6FF731A614AF6B403C1F6A2
:10528000FF73D3F8E8234AF6B403C1F6FF73C3F8FB
:10529000EC234AF6B403C1F6FF73D3F8EC2349F6C6
:1052A000E813C1F6FF735A614AF6B403C1F6FF73FF
:1052B000D3F8E8244AF6B403C1F6FF73C3F8EC242C
:1052C0004AF6B403C1F6FF73D3F8EC2449F6E813A9
:1052D000C1F6FF739A614AF6B403C1F6FF73D3F8BF
:1052E000E8254AF6B403C1F6FF73C3F8EC254AF685
:1052F000B403C1F6FF73D3F8EC2549F6E813C1F601
:10530000FF73DA61BD4680BC704700BF80B400AF58
:105310004AF6B403C1F6FF734FF00002C3F8EC2263
:105320004AF6B403C1F6FF73D3F8EC2249F6E8134A
:10533000C1F6FF731A614AF6B403C1F6FF734FF06A
:105340000002C3F8EC234AF6B403C1F6FF73D3F8A6
:10535000EC2349F6E813C1F6FF735A614AF6B40329
:10536000C1F6FF734FF00002C3F8EC244AF6B40311
:10537000C1F6FF73D3F8EC2449F6E813C1F6FF73C6
:105380009A614AF6B403C1F6FF734FF00002C3F806
:10539000EC254AF6B403C1F6FF73D3F8EC2549F6C1
:1053A000E813C1F6FF73DA61BD4680BC704700BFE9
:1053B00080B582B000AF4FF00003FB7112F020FE09
:1053C00000F012F849F21403C1F6FF734FF40342E0
:1053D000C4F203021A600CF063FCFB79184607F173
:1053E0000807BD4680BD00BF80B582B002AF4FF058
:1053F000010300934FF01103019349F65820C1F6C1
:10540000FF704CF65871C1F6FF7149F6C422C1F61F
:10541000FF7240F21A4312F0FBFDBD4680BD00BF93
:1054200080B500AF12F0E4FD80BD00BF80B582B052
:1054300000AF786039607B68012B46D13A684FF63F
:10544000FF739A4241D149F66010C1F6FF7012F025
:1054500017FA49F66C10C1F6FF7012F011FA49F60E
:105460007810C1F6FF7012F00BFA49F68410C1F6FD
:10547000FF7012F005FA49F69010C1F6FF7012F0B5
:10548000FFF949F69C10C1F6FF7012F0F9F949F6E0
:10549000A810C1F6FF7012F0F3F949F6B410C1F686
:1054A000FF7012F0EDF949F6C010C1F6FF7012F06E
:1054B000E7F949F6CC10C1F6FF7012F0E1F949F6B0
:1054C000D810C1F6FF7012F0DBF907F10807BD46EE
:1054D00080BD00BF80B500AF4FF001004FF6FF71F7
:1054E000FFF7A4FF80BD00BF000000000000000027
:1054F00080B483B000AF0346FB7197F90730002BEF
:1055000010DB4FF46143CEF2000397F907204FEA16
:105510005212F97901F01F014FF0010000FA01F178
:1055200043F8221007F10C07BD4680BC704700BF4E
:1055300080B483B000AF0346FB7197F90730002BAE
:1055400012DB4FF46143CEF2000397F907204FEAD4
:105550005212F97901F01F014FF0010000FA01F138
:1055600002F1200243F8221007F10C07BD4680BC6F
:10557000704700BF80B483B000AF0346FB7197F95A
:105580000730002B12DB4FF46143CEF2000397F992
:1055900007204FEA5212F97901F01F014FF0010084
:1055A00000FA01F102F1600243F8221007F10C0742
:1055B000BD4680BC704700BF80B483B000AF0346D7
:1055C0003960FB7197F90730002B0EDB4FF4614314
:1055D000CEF2000397F907103A68D2B24FEA0212EE
:1055E000D2B25B1883F800230FE04FF46D43CEF284
:1055F0000003FA7902F00F02A2F104013A68D2B274
:105600004FEA0212D2B25B181A7607F10C07BD46B8
:1056100080BC704780B582B000AF78607B6803F1D2
:10562000FF326FF07F439A4202D94FF001031DE031
:105630004EF21003CEF200037A6802F1FF325A6094
:105640004FF0FF304FF00F01FFF7B6FF4EF210039F
:10565000CEF200034FF000029A604EF21003CEF239
:1056600000034FF007021A604FF00003184607F1DD
:105670000807BD4680BD00BF80B500AF49F6E463B2
:10568000C1F6FF731B68012B07D14FF44053C4F2DE
:1056900003034FF00E02C3F810244FF48053C4F2FA
:1056A00001034EF25152C1F6CC22C3F8002C4FF444
:1056B0008053C4F2010341F6AE22CEF23352C3F856
:1056C000002C4FF48053C4F201034FF000021A7211
:1056D0004FF00003C4F201034FF000021A704FF0C4
:1056E0000003C4F201034FF000021A744FF00003EC
:1056F000C4F201034FF000021A754FF00003C4F228
:1057000001034FF080021A764FF00003C4F2010348
:105710004FF080021A774FF00003C4F201034FF0FC
:10572000800283F820204FF00003C4F201034FF001
:10573000000283F8282049F6E063C1F6FF731B7866
:10574000022B2BD14FF08043D3F800314FEA835323
:105750004FEA935340F2FF3293420CBF00230123E0
:10576000DBB2002B35D04FF46043C4F202034EF29B
:105770005452C1F6CC22DA604FF46043C4F2020303
:105780004FF08042D2F8002192B29A804FF46043E9
:10579000C4F202034FF00002DA601AE04FF46043F3
:1057A000C4F202034EF25452C1F6CC22DA604FF03A
:1057B000010001F0CDFA4FF46043C4F202034FF44C
:1057C000C0729A804FF46043C4F202034FF00002AB
:1057D000DA6080BD80B582B000AF4FF00003FB718E
:1057E0004FF00003BB714FF01D037B71F979BA795B
:1057F0007B79084611461A4601F042F80346002B11
:105800000CBF00230123DBB2002B00D0FEE707F121
:105810000807BD4680BD00BF80B500AF49F6E06314
:10582000C1F6FF734FF000021A7049F6E463C1F647
:10583000FF734FF001021A6000F00AF80CF020FE2E
:105840004EF65F20FFF7E6FE00F09CFC80BD00BF37
:1058500080B500AF00F076F800F0F6F800F040F9FF
:1058600000F082F900F0CCF900F024FA00F066FABA
:1058700000F0A0FA4FF44053C4F203034FF00002CB
:105880001A624FF44053C4F203034FF003021A624A
:105890004FF44053C4F203034FF00002C3F8202238
:1058A0004FF44053C4F203034FF00002C3F8202426
:1058B00000F0BCFA4FF44053C4F203034FF000026F
:1058C000C3F800264FF44053C4F203034FF44032B0
:1058D000C3F800264FF44053C4F203034FF0000214
:1058E000C3F8042600F056FB4FF44053C4F2030300
:1058F0004FF00002C3F810264FF44053C4F20303E4
:105900004FF00002C3F814264FF44053C4F20303CF
:105910004FF00002C3F8182600F072FB00F0BAFB4B
:105920004FF44053C4F203034FF00002C3F824269F
:105930004FF44053C4F203034FF00002C3F828268B
:1059400080BD00BF80B400AF49F6E063C1F6FF73CD
:105950001B78022B36D14FF44053C4F203034FF0AF
:105960001F021A604FF44053C4F203034FF0FF02CA
:105970001A604FF44053C4F203034FF00002C3F81F
:1059800000224FF44053C4F203034FF40072C3F8F3
:1059900000224FF44053C4F203034FF01F02C3F838
:1059A00000214FF44053C4F203034FF00002C3F848
:1059B00000274FF44053C4F203034FF00002C3F832
:1059C00000243EE049F6E063C1F6FF731B78002B2C
:1059D00036D14FF44053C4F203034FF01F021A6054
:1059E0004FF44053C4F203034FF0FF021A604FF428
:1059F0004053C4F203034FF00002C3F800224FF4F7
:105A00004053C4F203034FF48072C3F800224FF4F2
:105A10004053C4F203034FF01F02C3F800214FF4B8
:105A20004053C4F203034FF00002C3F800274FF4C1
:105A30004053C4F203034FF00002C3F8002400E017
:105A4000FEE7BD4680BC704780B400AF49F6E06316
:105A5000C1F6FF731B78022B3ED049F6E063C1F616
:105A6000FF731B78002B36D14FF44053C4F203036D
:105A70004FF000025A604FF44053C4F2030347F260
:105A8000FF725A604FF44053C4F203034FF0000218
:105A9000C3F804224FF44053C4F203034FF0000252
:105AA000C3F804214FF44053C4F2030347F2FF72DA
:105AB000C3F804214FF44053C4F203034FF0000233
:105AC000C3F804274FF44053C4F203034FF000021D
:105AD000C3F8042400E0FEE7BD4680BC704700BF69
